LIBRARY101FRLBG5511LIBRARY RECHARGES                  20150408000000047000N                                                                                                                                                                               
LIBRARY101FRLBG55120000F510000000002350LIBRARY-PHOTOCOPY SERVICE          DA60200A414909636064400000            ANSVAMC                                000000                 000000          00000000         20150408   
LIBRARY101FRLBG55120001F510000000002350LIBRARY-PHOTOCOPY SERVICE          DA60200A414909636064400000            ANSVAMC                                000000                 000000          00000000         20150408   
LIBRARY101FRLBG55120002F510000000002350LIBRARY-PHOTOCOPY SERVICE          DA60200A414909636064400000            ANSVAMC                                000000                 000000          00000000         20150408   
LIBRARY101FRLBG55120003F510000000002350LIBRARY-PHOTOCOPY SERVICE          DA60200A414909636064400000            ANSVAMC                                000000                 000000          00000000         20150408   
LIBRARY101FRLBG55120004F510000000002350LIBRARY-PHOTOCOPY SERVICE          DA60200A414909636064400000            ANSVAMC                                000000                 000000          00000000         20150408   
LIBRARY101FRLBG55120005F510000000002350LIBRARY-PHOTOCOPY SERVICE          DA60200A414909636064400000            ANSVAMC                                000000                 000000          00000000         20150408   
LIBRARY101FRLBG55120006F510000000002350LIBRARY-PHOTOCOPY SERVICE          DA60200A414909636064400000            ANSVAMC                                000000                 000000          00000000         20150408   
LIBRARY101FRLBG55120007F510000000002350LIBRARY-PHOTOCOPY SERVICE          DA60200A414909636064400000            ANSVAMC                                000000                 000000          00000000         20150408   
LIBRARY101FRLBG55120008F510000000002350LIBRARY-PHOTOCOPY SERVICE          DA60200A414909636064400000            ANSVAMC                                000000                 000000          00000000         20150408   
LIBRARY101FRLBG55120009F510000000002350LIBRARY-PHOTOCOPY SERVICE          DA60200A414909636064400000            ANSVAMC                                000000                 000000          00000000         20150408   
LIBRARY101FRLBG55120011F510000000023500LIBRARY-PHOTOCOPY SERVICE          CA            693900                  LIBIL05                                000000                 000000          00000000         20150408   